:02000000ff00ff
:080002004c6174746963650030
:17000a00694345637562653220323032302e31322e32373934330071
:16002100506172743a2069434534304858314b2d56513130300002
:1a003700446174653a20417567203620323032332031383a33363a323300b2
:0200510000ffae
:040053007eaa997e6a
:02005700510056
:0200590001059f
:03005b00920020f0
:03005e0062014bf1
:030061007200909a
:0300640082000017
:02006700110086
:02006900010193
:20006b00000000000000000000000000000000000000000000000000000000000000000075
:09008b000000000000000000006c
:2000940000000000000000000000000000000000000000000000000000000000000000004c
:0a00b4000000000000000000000042
:2000be00000000000000000000000000000000000000000000000000000000000000000022
:0900de0000000000000000000019
:2000e7000000000000000000000000000000000000000000000000000000000000000000f9
:0a01070000000000000000000000ee
:200111000000000000000000000000000000000000000000000000000000000000000000ce
:09013100000000000000000000c5
:20013a000000000000000000000000000000000000000000000000000000000000000000a5
:0a015a00000000000000000000009b
:200164000000000000040000000000001000000000000040000000001000000000000040d7
:0901840000000000000100000071
:20018d00000000000000000000000000000000000000000000000000000000000000000052
:0a01ad000000000000000000000048
:2001b700000000000004000000000000100000000000004000000000100000000000004084
:0901d7000000000000010000001e
:2001e0000000000000000000000000000000000000000000000000000000000000000000ff
:0a02000000000000000000000000f4
:20020a000000000000000000000000000000000000000000000000000000000000000000d4
:09022a00000000000000000000cb
:200233000000000000000000000000000000000000000000000000000000000000000000ab
:0a02530000000000000000000000a1
:20025d00000000000000000000000000000000000000000000000000000000000000000081
:09027d0000000000000000000078
:20028600000000000000000000000000000000000000000000000000000000000000000058
:0a02a600000000000000000000004e
:2002b00000000000000000000000000000000000000000000000000000000000000000002e
:0902d00000000000000000000025
:2002d900000000000000000000000000000000000000000000000000000000000000000005
:0a02f90000000000000000000000fb
:200303000000000000000000000000000000000000000000000000000000000000000000da
:09032300000000000000000000d1
:20032c00000000000000000000000000000000000040000000000000000000000000000071
:0a034c0000000000000000000000a7
:20035600000000000000000000000000000000000000000000000000000000000000000087
:090376000000000000000000007e
:20037f0000000000000000000000000000000000000000000000000000000000000000005e
:0a039f000000000000000000000054
:2003a900000000000000000000000000000000000000000000000000000000000000000034
:0903c9000000000000000000002b
:2003d20000000000000000000000000000000000000000000000000000000000000000000b
:0a03f2000000000000000000000001
:2003fc000002000000000000000000000000000000000000000000000000000000000000df
:09041c00000000000000000000d7
:200425000000000000000000000000000000000000000000000000000000000000000000b7
:0a04450000000000000000000000ad
:20044f0000000000000000000000000000000000000000000000000000000000000000008d
:09046f0000000000000000000084
:20047800000020000000000000000000000000000000000000000000000000000000000044
:0a049800000000000000000000005a
:2004a20000000000000000000000000000000000000000000000000000000000000000003a
:0904c20000000000000000000031
:2004cb00000000000000000000000000000000000000000000000000000000000000000011
:0a04eb000000000000000000000007
:2004f5000000000000000000000000000000000000000000000000000000000000000000e7
:09051500000000000000000000dd
:20051e000000000000000000000000000000000000000000000000000000000000000000bd
:0a053e0000000000000000000000b3
:20054800000000000000000000000000000000000000000000000000000000000000000093
:090568000000000000000000008a
:2005710000000000000000000000000000000000000000000000000000000000000000006a
:0a0591000000000000000000000060
:20059b00000000000000000000000000000000000000000000000000000000000000000040
:0905bb0000000000000000000037
:2005c400000000000000000000000000000000000000000000000000000000000000000017
:0a05e400000000000000000000000d
:2005ee000000000000000000000000000000000000000000000000000000000000000000ed
:09060e00000000000000000000e3
:200617000000000000000000000000000000000000000000000000000000000000000000c3
:0a06370000000000000000000000b9
:20064100000000000000000000000000000000000000000000000000000000000000000099
:0906610000000000000000000090
:20066a00000000000000000000000000000000000000000000000000000000000000000070
:0a068a000000000000000000000066
:20069400000200000000000000000000000000000000000000000000000000000000000044
:0906b4000000000000000000003d
:2006bd0000000000000000000000000000000000000000000000000000000000000000001d
:0a06dd000000000000000000000013
:2006e7000000000000000000000000000000000000000000000000000000000000000000f3
:09070700000000000000000000e9
:200710000000200000000000000000000000000000000000000000000000000000000000a9
:0a07300000000000000000000000bf
:20073a0000000000000000000000000000000000000000000000000000000000000000009f
:09075a0000000000000000000096
:20076300000000000000000000000000000000000000000000000000000000000000000076
:0a078300000000000000000000006c
:20078d0000000000000000000000000000000000000000000000000000000000000000004c
:0907ad0000000000000000000043
:2007b600000000000000000000000000000000000000000000000000000000000000000023
:0a07d6000000000000000000000019
:2007e0000000000000000000000000000000000000000000000000000000000000000000f9
:09080000000000000000000000ef
:200809000000000000000000000000000000000000000000000000000000000000000000cf
:0a08290000000000000000000000c5
:200833000000000000000000000000000000000000000000000000000000000000000000a5
:090853000000000000000000009c
:20085c0000000000000000000000000000000000004000000000000000000000000000003c
:0a087c000000000000000000000072
:20088600000000000000000000000000000000000000000000000000000000000000000052
:0908a60000000000000000000049
:2008af00000000000000000000000000000000000000000000000000000000000000000029
:0a08cf00000000000000000000001f
:2008d9000000000000000000000000000000000000000000000000000000000000000000ff
:0908f900000000000000000000f6
:200902000000000000000000000000000000000000000000000000000000000000000000d5
:0a09220000000000000000000000cb
:20092c000002000000000000000000000000000000000000000000000000000000000000a9
:09094c00000001000000000000a1
:20095500000000000000000000000000000000000000000000000000000000000000000082
:0a0975000000001000000000000068
:20097f00000000000000000000000000000000000000000000000000000000000000000058
:09099f000000000000000000004f
:2009a80000002000000000000000000000000000000000000000000000000000000000000f
:0a09c8000000000000000000000025
:2009d200000000000000000000000000000000000000000000000000000000000000000005
:0909f200000000000000000000fc
:2009fb000000000000000000000000000000000000000000000000000000000000000000dc
:0a0a1b0000000000000000000000d1
:200a25000000000000000000000000000000000000000000000000000000000000000000b1
:090a4500000000000000000000a8
:200a4e00000000000000000000000000000000000000000000000000000000000000000088
:0a0a6e00000000000000000000007e
:200a780000000000000000000000000000000000000000000000000000000000000000005e
:090a980000000000000000000055
:200aa100000000000000000000000000000000000000000000000000000000000000000035
:0a0ac100000000000000000000002b
:200acb0000000000000000000000000000000000000000000000000000000000000000000b
:090aeb0000000000000000000002
:200af4000000000000000000000000000000000000000000000000000000000000000000e2
:0a0b140000000000000000000000d7
:200b1e000000000000000000000000000000000000000000000000000000000000000000b7
:090b3e00000000000000000000ae
:200b470000000000000000000000000000000000000000000000000000000000000000008e
:0a0b67000000000000000000000084
:200b7100000000000000000000000000000000000000000000000000000000000000000064
:090b91000000000000000000005b
:200b9a0000000000000000000000000000000000000000000000000000000000000000003b
:0a0bba000000000000000000000031
:200bc4000002000000000000001000000000000000000000000000000000000000000000ff
:090be40000000000000000000008
:200bed000000000000000000000100000000000000000000000000000000000000000000e7
:0a0c0d0000000000000000000000dd
:200c17000000000000000000000000000000000000000000000000000000000000000000bd
:090c3700000000000000000000b4
:200c4000000020000000000000000000000000000000000000000000000000000000000074
:0a0c6000000000000000000000008a
:200c6a0000000000000000000000000000000000000000000000000000000000000000006a
:090c8a0000000000000000000061
:200c9300000000000000000000000000000000000000000000000000000000000000000041
:0a0cb3000000000000000000000037
:200cbd00000000000000000000000000000000000000000000000000000000000000000017
:090cdd000000000000000000000e
:200ce6000000000000000000000000000000000000000000000000000000000000000000ee
:0a0d060000000000000000000000e3
:200d10000000000000000000000000000000000000000000000000000000000000000000c3
:090d3000000000000000000000ba
:200d390000000000000000000000000000000000000000000000000000000000000000009a
:0a0d59000000000000000000000090
:200d6300000000000000000000000000000000000000000000000000000000000000000070
:090d830000000400000000000063
:200d8c00000000000000000000000000000000000040000000000000000000000000000007
:0a0dac00000000200000000000001d
:200db60000000000000000000000000000000000000000000000000000000000000000001d
:090dd60000000000000000000014
:200ddf000000000000000000000000000000000000000000000000000000000000000000f4
:0a0dff0000000000000000000000ea
:200e09000000000000000000000000000000000000000000000000000000000000000000c9
:090e2900000000000000000000c0
:200e32000000000000000000000000000000000000000000000000000000000000000000a0
:0a0e52000000000000000000000096
:200e5c00000200000000000000000000000000000000000000000000000000000000000074
:090e7c000000000000000000006d
:200e850000000000000000000000000000000000000000000000000000000000000000004d
:0a0ea5000000000000000000000043
:200eaf00000000000000000000000000000000000000000000000000000000000000000023
:090ecf000000000000000000001a
:200ed8000000200000000000000000000000000000000000000000000000000000000000da
:0a0ef80000000000000000000000f0
:200f02000000000000000000000000000000000000000000000000000000000000000000cf
:090f2200000000000000000000c6
:200f2b000000000000000000000000000000000000000000000000000000000000000000a6
:0a0f4b00000000000000000000009c
:200f550000000000000000000000000000000000000000000000000000000000000000007c
:090f750000000000000000000073
:200f7e00000000000000000000000000000000000000000000000000000000000000000053
:0a0f9e000000000000000000000049
:200fa800000000000000000000000000000000000000000000000000000000000000000029
:090fc80000000000000000000020
:200fd100000000000000000000000000000000000000000000000000000000000000000000
:0a0ff10000000000000000000000f6
:200ffb000000000000000000000000000000000000000000000000000000000000000000d6
:09101b000000000000000a9640ec
:201024000000000000000000000000000000000000000000000000000000000000000000ac
:0a1044000000000000001c069000f0
:20104e00000000000000000000000000000000000000000000000000000000000000000082
:09106e000000020000000e0f401a
:20107700000000000000000000000000000000000000000000000000000000000000000059
:0a1097000000008000000000f000df
:2010a10000000000000000000000000000000000000000000000000000000000000000002f
:0910c10000000000200000000006
:2010ca00000000000000000000000000000000000000000000000000000000000000000006
:0a10ea0000000000004000000000bc
:2010f4000002000000000000000000000000000000000000000000000000000000000000da
:09111400000000000000000000d2
:20111d000000000000000000000000000000000000000000000000000000000000000000b2
:0a113d0000000000000000000000a8
:20114700000000000000000000000000000000000000000000000000000000000000000088
:091167000000000000000000007f
:2011700000002000000000000000000000000000000000000000000000000000000000003f
:0a1190000000000000000000000055
:20119a00000000000000000000000000000000000000000000000000000000000000000035
:0911ba000000000000000000002c
:2011c30000000000000000000000000000000000000000000000000000000000000000000c
:0a11e3000000000000000000000002
:2011ed000000000000000000000000000000000000000000000000000000000000000000e2
:09120d00000000000600000000d2
:201216000000000000000000000000000000000000000000000000000000000000000000b8
:0a12360000000000000000000000ae
:2012400000000000000000000000000000000000000000000000000000000000000000008e
:0912600000000400000000000081
:20126900000000000000000000000000000000000000000000000000000000000000000065
:0a128900000000000000000000005b
:2012930000000000000000000000000000000000000000000000000000000000000000003b
:0912b30000000000000140008071
:2012bc000000000000000000000000000000000000400000000000000000000000000000d2
:0a12dc0000000000000000a0000068
:2012e6000000000000000000000000000000000000000000000000000000000000000000e8
:09130600000002000001c8f0c063
:20130f000000000000000000000000000000000000000000000000000000000000000000be
:0a132f000000008000000000f00044
:20133900000000000000000000000000000000000000000000000000000000000000000094
:0913590000000000146548f0c01a
:2013620000000000000000000000000000000000000000000000000000000000000000006b
:0a1382000000000001420200f0002c
:20138c0000020000000000000000000000000000000000000000000000000000000000003f
:0913ac0000000000060548f0c035
:2013b500000000000000000000000000000000000000000000000000000000000000000018
:0a13d5000000000000020200f0001a
:2013df000000000000000000000000100000000000000000000000000000000000000000de
:0913ff00000000000001e8f0c04c
:201408000000200000000000000000000000000000000000000000000000000000000000a4
:0a1428000000000000000000f000ca
:2014320000000000000000000000000000000000000000000000000000000000000000009a
:0914520000000000000168f0c078
:20145b00000000000000000000000000000000000000000000000000000000000000000071
:0a147b000000000000000000f00077
:20148500000000000000000000000000000000000000000000000000000000000000000047
:0914a50000000000060168f0c01f
:2014ae0000000000000000000000000000000000000000000000000000000000000000001e
:0a14ce000000000000000200f00022
:2014d8000000000000000000000000000000000000000000000000000000000000000000f4
:0914f800000004002061e8f0c0ce
:201501000000000000000000000000000000000000000000000000000000000000000000ca
:0a1521000000000000400200f0008e
:20152b000000000000000000000000000000000000000000000000000000000000000000a0
:09154b00000000000001c8f0c01e
:20155400000000000000000000000000000000000000000000000000000000000000000077
:0a1574000000000000000000f0403d
:20157e0000000000000000000000000000000000000000000000000000000000000000004d
:09159e00000002000001c8f0c0c9
:2015a700000000000000000000000000000000000000000000000000000000000000000024
:0a15c7000000008000000000f000aa
:2015d1003000000000000000000000000000000000000000000000000000000000000000ca
:0915f10000000000006548f0c094
:2015fa000300000000000000000000000000000000000000000000000000000000010000cd
:0a161a000000000000020200f000d2
:201624000003000000000000000000000000000000000000000000000000000000000000a3
:0916440000000000060548f0c09a
:20164d0000000000000000000000000000000000000000000000000000000000000000007d
:0a166d000000000000020200f0007f
:20167700000000000000000000000000000000000000000000000000000000000000000053
:09169700000000000001e8f0c0b1
:2016a00000000000000000000000000000000000000000000000000000000000000000002a
:0a16c0000000000000000000f00030
:2016ca000000000000000000000004000000000000000000000000000000000000000000fc
:0916ea0000000000000168f0c0de
:2016f3000000000000000000000000000000000000000000000000000000000000000000d7
:0a1713000000000000000000f000dc
:20171d000000000000000000000000000000000000000000000000000000000000000000ac
:09173d0000000000260168f0c064
:2017460008000000000000000000000000000000000000000000000000000000000000007b
:0a1766000000000000400200f00047
:20177000000400000000000000000000000000000000000000000000000000000000000055
:09179000000004002061e8f0c033
:201799001002000000000000000000000000000000000000000000000000000000300000ee
:0a17b9000000000000400200f000f4
:0217c300000024
:0217c500110110
:0217c70001011e
:2017c90000000200000000000008008000000000200000000008000000000000200000002e
:0917e90000000080000000000077
:2017f2000000000000000000000000090000000000000000000000000000000000000000ce
:0a18120000000000000000000000cc
:20181c00000001000000000000040000001000001000000000040000000000001000000073
:09183c0000000040000000000063
:20184500000000000000000000000000000000000000000000000000000000000000000083
:0a1865000000000000000000000079
:20186f000000020000000000000800000030000020020000800800580000000020000000fd
:09188f004000008003000100008c
:2018980000000000000000c00000000000030000000004000c00000000010000000000005c
:0a18b8000c0000000000001000000a
:2018c200000000000004000000000000100000000000004000000000100000000000004062
:0918e200000000000001000000fc
:2018eb000000000000000000000000000000000000000000000000000000000000000000dd
:0a190b0000000000000000000000d2
:20191500000000000004000000000000100000000000004000000000300000000002e0c08c
:09193500000000000003000000a6
:20193e000000000000000000000000000001800000000000000000000000000000001400f4
:0a195e00000000000000000000007f
:2019680000000000000000000000000000000000000000000000000000300000000000002f
:09198800c0000000000003000093
:201991000000000000000000000000000000000000000000000080000002000002000000b2
:0a19b100040000080038002c0000bc
:2019bb00000000000600000000000000000000000000000000000000000000000000000006
:0919db0000000000018000000082
:2019e400000000000020000000000000000100000000000000004000000000000100000081
:0a1a040000000004000000000000d4
:201a0e00000000000004000000000000100000000000004000000000100000000000004014
:091a2e00000000000001000000ae
:201a3700000000000000000000000000000000000000000000008005800000000200000088
:0a1a5700000000080000000000007d
:201a6100000000000000000000000000000000000000000000000000000000000000000065
:091a81000000000000000000005c
:201a8a0000000000000000000000000c000000000000000000000000000000000000000030
:0a1aaa000000000000000000000032
:201ab40000000000008000000000000035ee1000000000000000000000000000000300005c
:091ad40000000000000000000009
:201add000000000000000000000000000249844000000000000000000000000000003000aa
:0a1afd0000000000000000000000df
:201b0700000000000000000000040000059090000000000000000000000000000000000095
:091b2700000000000000000000b5
:201b300000000000078000000000800001fab0410000000000000000000000000000008022
:0a1b5000000000000000000000008b
:201b5a0000020000000000000000000035e1e010000000000000000000000000000d000056
:091b7a0000000000000000000062
:201b8300000000000000000000000000024905400000000000000000000000000000800032
:0a1ba3000000000000000000000038
:201bad0000000000000f73100000001005902200000000000000000000000000000000734c
:091bcd0066c000000000000000e9
:201bd60000002000000052c09000000071fa38400000000000000000000000000000000743
:0a1bf600367400000000000000003b
:201c000000000000000000000000000035ea000000000000000000000000000000000000a5
:091c2000000000000000000000bb
:201c2900000000000108000000000000024982400000000000000000000000000000000085
:0a1c49000000000000000000000091
:201c53000000200000000000008800000000000000000000000000000000000000000000c9
:091c730000000000000000000068
:201c7c000000008000000000000200000000000000000000000000000000000000000000c6
:0a1c9c00000000000000000000003e
:201ca60000000000000000000000000000000000000000000000000000000000000000001e
:091cc60000000000000000000015
:201ccf0000000000000000000000000e700000000000000000000000000000000000000077
:0a1cef0000000000000000000000eb
:201cf9000000000000000000000000000000000000000000000000000000000000000000cb
:091d1900000000000000000000c1
:201d220000000000000000000000000000000000000000000000000c000000000000000095
:0a1d42000000000000000000000097
:201d4c00000000000000000000000000000000000000000000000000000000000000000077
:091d6c000000000000000000006e
:201d750000000000000000000000000000000000000000000000000000000000000000e06e
:0a1d95000000000000000000000044
:201d9f00000000000000000000000000000000000000000000000020000000000000000004
:091dbf000000000000000000001b
:201dc8000000000000000000000000000000000000000000000000160000000000080000dd
:0a1de80000000000000000000000f1
:201df200000200000000000000000000000000000000000000000003c0000000000000000c
:091e1200000000000000000000c7
:201e1b000000000000000000000000000000000000000000000000000400000000000000a3
:0a1e3b00000000000000000000009d
:201e450000000000000000000000000000000000000000000000000000000000000000007d
:091e650000000000000000000074
:201e6e00000020000000000000000000000000000000000000000000000000000000000034
:0a1e8e00000000000000000000004a
:201e98000000000000000000000000000000000000000000004000400000000300000000a7
:091eb80000000000000000000021
:201ec1000000000000000000000000000000000000000000000c002000000000300000a005
:0a1ee10000000000000000000000f7
:201eeb00000000000000000000000000000000000000000000800000000000020000001c39
:091f0b00000200000000000000cb
:201f14000000000000000000000000000000000000000000000200000000000008000001a2
:0a1f34002a810000000000000000f8
:201f3e000000000000000000000000000000000004000000000000001c0f509000000a006a
:091f5e000000000000000000007a
:201f6700000000000000000000000000000000000000000000000000035c05414000500025
:0a1f87000000000000000000000050
:201f910000000000000000000000000000000000000000000000000025d7e200000f809330
:091fb100ffc20000000000000066
:201fba0004000000010000000000000000000000000000000000000003cca7010000100576
:0a1fda003bbc000000000000000006
:201fe4008000000000000000000a00000000000000000000000000001f0e30000000085698
:09200400eb4000000200000000a6
:20200d0000000000000000000000400000000000000000000000001668d8e702000018110b
:0a202d003968050001e00000000022
:2020370008000000000929280000000000000000000000000000000025d88010000f005338
:092057008180000000000000007f
:2020600004800000000097c89000000000000000000000000000000003cc04000280800711
:0a208000f605040001c00000000096
:20208a00000200000000000000000000000000000000000000000002afefe010000008009c
:0920aa000000000000014e3800a6
:2020b3000000000000000000000001000000000000000000000000166cd8f60000000010ac
:0a20d3000000000000002ea704101a
:2020dd000000000090000000000000000000000000000000000000002d0000000000001e08
:0920fd00fc0600000000000000d8
:2021060000003000080000000000000000000000000000000000000001cca0000000000311
:0a21260029c5200001e000000000c0
:202130000840000000000000000000000000000010000000000000002d00a000000f8d943a
:092150003c0200003c000000000c
:202159000406000300000000000000000000000000300000000000000018050080005191aa
:0a21790039552000000000000000ae
:202183008000200001000000000000000000000000000000000000040403c082000000d07e
:0921a3002bc04800000000000000
:2021ac0000000080001800000000000000000000000000000000000020003c0a0800000706
:0a21cc0028012020000000000000a0
:2021d6000026000090076008000000000000000000000000000000003ed0009028000d5c95
:0921f6001680008000014e090072
:2021ff00040040000800de0e10000000000000000000000000000006006c10080000199144
:0a221f003828000400002eab04086c
:2022290000000000508d038800000003e7f4a08000100000000000000d9d100008008b00d2
:092249000000000000000000008c
:20225200040000000d8106b440800000074de540000200000000048001cf42200100180016
:0a2272000000000000000000000062
:20227c008000000000ad43e8000080038000000000000000000a01c275ae200000200000b7
:09229c0000000000000000000039
:2022a5000000000005819e814000000004000000000000000000401428cee720000001a03e
:0a22c500000000000000000000000f
:2022cf000c24000000f000000000000007f4a00028000000000004002ca9900000000000a3
:0922ef0000000000800000000066
:2022f80004404000001a00000000000e014ce54100000000000000002a0066000000000017
:0a23180000000000000000000000bb
:202322000002000050897248000000226e0a020000000000000000001405a000000010f4ad
:0923420003c000000000000000cf
:20234b0000000003081aff215000000e045af54000000000000000060200a54000000185c9
:0a236b00e03c00000000000000004c
:202375000000000000ff3590000003c3cd0aa01000000000000017603dce61000001000053
:0923950000000000000000ff0040
:20239e0000003000079f778c10000000684ca5400000000000000086014ae5000000800067
:0a23be00000000000000000ff20014
:2023c80008240000f0d97320004000c42cbe20100000000000000344000270011000000085
:0923e800000000000000000000ec
:2023f100048040000801ff0410040000700bd140000000000000001e29da27121280000070
:0a24110000000000000000000000c1
:20241b008000200008adeab8008000038f055000000000000080144000050102000010f067
:09243b003e8400000000000000d6
:20244400000000800780b215000200152e6ca54080000000000240a071785000080000a9c8
:0a2464007a9500000400000000005b
:20246e000002080000abc2a800200243ee0f5000040000000020000002055000801d0f1c3a
:09248e003d4402000000000000c2
:20249700040000000000faa9400000162d78a040400000000000000000ea5500000000071d
:0a24b700b2950000000000000000d4
:2024c100000000000000000000000027ff9ae00000000000000801420000000000011e7879
:0924e10001000001402000000090
:2024ea0000000000000800000000001c3b685400000000000000000000000000003099c925
:0a250a00383028c00800400000002f
:20251400000008000080428c052002e3f6fd100000000000000000028e8a70000005880429
:09253400140000000001506900d0
:20253d0080000000000153a8d0800026026f420100000000000000007dc8e5600000d0017d
:0a255d0021400000000021e96400a5
:20256700000000000005416800000000140aa000000000000000140242896000400700332d
:09258700fc0000000000000f0838
:20259000000600000000df954000000003eea500000000000000428000e996800000018594
:0a25b0007b458000000001a0f4004c
:2025ba000002000000e00000000001c41f8d100000000000000001c382c9600001008c9012
:0925da0016800200000000000060
:2025e30000000000000100000000002020de4701000000000000000001e896a00000101032
:0a2603000295000000000000000036
:20260d0000000000f0b00000000003e03cbf3000000000000000040002a960000000991047
:09262d001680000000000000000e
:202636000000200007810000000000043b6e0300000000000000000000e896800030199055
:0a2656000295400000600000000043
:202660000c001000d805429400c003c20c8c30000000000000c0034000df0000000f803b92
:092680004380000004000000008a
:2026890004400300030016bd400400007dcbd34000000000000c00000008f0800000780f6a
:0a26a900a94000000200000000003c
:2026b30080002000f0c1417c608002c4000000000000000000821420000f0002000000b4d8
:0926d3003d405800000000000029
:2026dc000000008008001e028002000078000000000000000003409400c8f080080000091c
:0a26fc007bc1002000100000000068
:202706000002080000000000002000428e8c3000000000000020014000000020a0090dd6f0
:09272600800002000000005504cf
:20272f0004000000050000000000002025cfcb40000000000000000001e000800000519f11
:0a274f006e000240000014855400e3
:2027590000000000000b41c0008000000000000000200000000000040000000000001a0096
:09277900280000000400200f20dc
:202782000000000000009ebc50ac000000000000000100000000000070000000000059c750
:0a27a200b28000c402061e8f0c0076
:2027ac00000000001009e840000000020000000000000000000000263fe0400800050a7faf
:0927cc00c08000000400200f0091
:2027d50000000000000053000000000004000000000000000000000420ee00400000f093b8
:0a27f5002c1400000260168f0c0087
:2027ff0000000000010000000000000000000000000000000000002680000000000f0a7387
:09281f00c00000000000000f00e1
:2028280000000000000800000000000000000000000000000000000e2400000000008013c3
:0a284800ac2000000000168f0c0009
:202852000002000050ab800400000000000000000000000000000002aca7b01000250ad7ca
:09287200408000000000000f008e
:20287b000000000008095b8000800000000000000000000000000000015ca540000558f141
:0a289b00e400000000001e8f0c0096
:2028a5000000000008e0028000000000000000000000000000000000060f50000001100033
:0928c500000000000020200f00bb
:2028ce000000200001985b28000000000000000000000000000000000058a020000018e09e
:0a28ee00000000000060548f0c0091
:2028f8000000000008900000000000400100f0800000000000c00066fdde300000009edbcd
:09291800400000000020200f0027
:20292100000000000181000000000020000e0f400000000000040034234bc740000018e9e9
:0a294100b82000000006548f0c00bf
:20294b00000020001000401485800000000000000000000000800140010f30120021905cc3
:09296b001c0008000000000f0030
:20297400000000800800168144020000000000000000000000020000001cf3420800998961
:0a2994003bc50f2000001c8f0e0051
:20299e000000000010ad0168000000000005504004000000000000223fe8500000000a5a5d
:0929be00008000000000000f047d
:2029c70000000000080080295000000001485540000000000000000c04ee48000000000fbc
:0a29e7003400000000001c8f0c00fb
:2029f1000000200000a00000008000400200f00000200000000000002c02a01000050a0047
:092a1100000000400400200f0049
:202a1a000000030005810000000c002061e8f0c00001000000000004021e15438000581089
:0a2a3a00000000c802061e8f0c0009
:202a44000000000050000000000000400200f00000000000000000003fa01010000000f4fd
:092a6400040000000000200f0036
:202a6d000000000008000000000000260168f0c00000000000000000305d0000000000a7ce
:0a2a8d00a9680a000060168f0c0013
:202a970000000000000341a4000000000000f00000000000000000023408501000050a9307
:092ab700f0c000000200000f0055
:202ac00000000000019a8325900000000168f0c00000000000000000677e4543000080130a
:0a2ae000ff0400000040168f0c00f8
:202aea000002000050a00000000000000000f00000000000000000003fac301000000000bf
:092b0a00000000000034000f007f
:202b130000000000000000000000000001e8f0c00000000000000000005d6300000000a0a9
:0a2b33000000000000005e8f0c009f
:202b3d000000000000000000000000020200f00000200000000000022e9130100000000063
:092b5d00000000000020200f0020
:202b66000000200000000000000000060548f0c0000500000000000606fe436080000000fa
:0a2b8600000000000060548f0e00f4
:202b90000000000008052400000000020200f00000000000000000000000000000000b34c1
:092bb000000000000020200f08c5
:202bb9000000000001803b82000000006548f0c0000000000000000000000000000001e977
:0a2bd900610008000016548f0c0084
:202be3000000200000000000008000000000f000000000000080000000000000000010bff3
:092c0300800008000000000f0031
:202c0c0000000080000000000002000001c8f0c0000000000002000000000000000000a308
:0a2c2c00ac80002000001c8f0c009b
:202c3600000000000093f800000000000000f0400000000000000000000000000000800043
:092c56000000000000000d000068
:202c5f000000000000017f600000000001c8f0c0000000000000000060000000000011e0ab
:0a2c7f000000000000000e00080035
:202c89000000000058013400008000400200f00000000000000000000000000000000000ec
:092ca90000000000000000000022
:202cb20000000000091ad700404c002061e8f0c00000000000000000000000000000000063
:0a2cd20000000040000000000000b8
:202cdc000000000050d780c0000000000000f200000000000000000000000000000000007f
:092cfc00000000000000000000cf
:202d0500000000000000f2bfc08000060168f0c0000000000000000000000000000000009e
:0a2d250000000000000000000000a4
:202d2f000000000050ab4040000001e00000f0000000000000000000000000000000000038
:092d4f000000000e00000000006d
:202d580000000000058a3a96808000140168f0c000000000000000000000000000000000cf
:0a2d78000000000000000000000051
:202d82000002000000a52b0c000000000000f0000000000000000000000000000000000063
:092da20000000000000000000028
:202dab0000000000050aff304000000001e8f0c100000000000000000000000000000000f0
:0a2dcb0000000000000000000000fe
:202dd500000000000003f800000001c00200f0000000000000000000000000000000000030
:092df500000000000000000000d5
:202dfe000000200003003782000000260148f0d000000000000000000000000000000000aa
:0a2e1e0000000000000000000000aa
:202e280000000000d8000000000000020200f00000000000000000000000000000000000be
:092e48000000000004000000007d
:202e51000000000007180000000000006548f0c000000000000000000000000000000000e5
:0a2e71000000000002000000000055
:202e7b00000000000003f404018000000000f00000000000000000000000000000000000cb
:092e9b0000000800000000000026
:202ea400000000000300bfc00002000001c8f0c00000000000000000000000000000000011
:0a2ec40000000020000000000000e4
:202ece0000000000000000000000000000c000000400000000000000000000000000000020
:092eee0000000000000000550482
:202ef70000000000000000000000000000e10080000000000000000000000000000000005a
:0a2f170000000000000014855400c3
:022f21000000ae
:022f2300110299
:022f25000101a8
:202f270000000000000000000000000000000000000000000000000000000000000000008a
:092f470000000000000000000081
:202f5000000000000000000000000000000000000000000000000000000000000000000061
:0a2f70000000000000000000000057
:202f7a00000000000000000000000000000000000000000000000000000000000000000037
:092f9a000000000000000000002e
:202fa30000000000000000000000000000000000000000000000000000000000000000000e
:0a2fc3000000000000000000000004
:202fcd000000000000000000000000000000000000000000000000000000000000000000e4
:092fed00000000000000000000db
:202ff6000000000000000000000000000000000000000000000000000000000000000000bb
:0a30160000000000000000000000b0
:203020000000000000080000000000002000000000080000000000002000000000000080c0
:0930400000000000000200000085
:20304900000000000000000000000000000000000000000000000000000000000000000067
:0a306900000000000000000000005d
:2030730000000000000800000000000020000000000800000000000020000000000000806d
:0930930000000000000200000032
:20309c00000000000000000000000000000000000000000000000000000000000000000014
:0a30bc00000000000000000000000a
:2030c6000000000000000000000000000000000000000000000000000000000000000000ea
:0930e600000000000000000000e1
:2030ef000000000000000000000000000000000000000000000000000000000000000000c1
:0a310f000000000000c000000000f6
:20311900000000000000000000000000000000000000000000000000000000000000000096
:0931390000000000000006800007
:2031420000000000000000000000000000000000000000000000000000000000000000006d
:0a3162000000000000000040000023
:20316c00000000000000000000000000000000000000000000000000000000000000000043
:09318c000000000000000000003a
:2031950000000000000000000000000000000000000000000000000000000000000000001a
:0a31b5000000000000000000000010
:2031bf000000000000000000000000000000000000000000000000000000000000000000f0
:0931df00000000000000000000e7
:2031e8000000000000000000000000000000000000000000080000000000000000000000bf
:0a32080000000000000000000000bc
:2032120000000000000000000000000000000000000000000000000000000000000000009c
:0932320000000000000000000093
:20323b00000000000000000000000000000000000000000000000000000000000000000073
:0a325b000000000000000000000069
:20326500000000000000000000000000000000000000000000000000000000000000000049
:0932850000000000000000000040
:20328e00000000000000000000000000000000000000000000000000000000000000000020
:0a32ae000000000000000000000016
:2032b8000002000000000000000000000000000000000000000000000000000000000000f4
:0932d800000000000000000000ed
:2032e1000000000000000000000000000000000000000000000000000000000000000000cd
:0a33010000000000000000000000c2
:20330b000000000000000000000000000000000000000000000000000000000000000000a2
:09332b0000000000000000000099
:20333400000020000000000000000000000000000000000000000000000000000000000059
:0a335400000000000000000000006f
:20335e0000000000000000000000000000000000000000000000000000000000000000004f
:09337e0000000000000000000046
:20338700000000000000000000000000000000000000000000000000000000000000000026
:0a33a700000000000000000000001c
:2033b1000000000000000000000000000000000000000000000000000000000000000000fc
:0933d100000000000000000000f3
:2033da000000000000000000000000000000000000000000000000000000000000000000d3
:0a33fa0000000000000000000000c9
:203404000000000000000000000000000000000000000000000000000000000000000000a8
:093424000000000000000000009f
:20342d0000000000000000000000000000000000000000000000000000000000000000007f
:0a344d000000000000000000000075
:20345700000000000000000000000000000000000000000000000000000000000000000055
:093477000000000000000000024a
:2034800000000000000000000000000000000000000000000000000000000000000000002c
:0a34a0000000000000000000000022
:2034aa00000000000000000000000000000000000000000000000000000000000000000002
:0934ca00000000000000000000f9
:2034d3000000000000000000000000000000000000000000000000000000000000000000d9
:0a34f30000000000000000000000cf
:2034fd000000000000000000000000000000000000000000000000000000000000000000af
:09351d00000000000000000000a5
:20352600000000000000000000000000000000000000000000000000000000000000000085
:0a354600000000000000000000007b
:20355000000200000000000000000000000000000000000000000000000000000000000059
:0935700000000000000000000052
:20357900000000000000000000000000000000000000000000000000000000000000000032
:0a3599000000000000000000000028
:2035a300000000000000000000000000000000000000000000000000000000000000000008
:0935c300000000000000000000ff
:2035cc000000200000000000000000000000000000000000000000000000000000000000bf
:0a35ec0000000000000000000000d5
:2035f6000000000000000000000000000000000000000000000000000000000000000000b5
:09361600000000000000000000ab
:20361f0000000000000000000000000000000000000000000000000000000000000000008b
:0a363f000000000000000000000081
:20364900000000000000000000000000000000000000000000000000000000000000000061
:0936690000000000000000000058
:20367200000000000000000000000000000000000000000000000000000000000000000038
:0a369200000000000000000000002e
:20369c0000000000000000000000000000000000000000000000000000000000000000000e
:0936bc0000000000000000000005
:2036c5000000000000000000000000000000000000000000000000000000000000000000e5
:0a36e50000000000000000000000db
:2036ef000000000000000000000000000000000000000000000000000000000000000000bb
:09370f00000000000000000000b1
:20371800000020000000000000000000000000000000000008000000000000000000000069
:0a3738000000000000000000000087
:20374200000000000000000000000000000000000000000000000000000000000000000067
:093762000000000000000000005e
:20376b0000000000000000000000000000000000000000000000000000000000000000003e
:0a378b000000000000000000000034
:20379500000000000000000000000000000000000000000000000000000000000000000014
:0937b5000000000000000000000b
:2037be000000000000000000000000000000000000000000000000000000000000000000eb
:0a37de0000000000000000000000e1
:2037e8000000000000000000000000000000000000000000000000000000000000000000c1
:09380800000000000000000000b7
:20381100000000000000000000000000000000000000000000000000000000000000000097
:0a383100000000000000000000008d
:20383b0000000000000000000000000000000000000000000000000000000000000000006d
:09385b0000000000000000000064
:2038640008002000000000000000000000000000000000000000000000000000000000001c
:0a388400000000000000000000003a
:20388e0000000000000000000000000000000000000000000000000000000000000000001a
:0938ae0000000000000000000011
:2038b7000000000000000000000000000000000000000000000000000000000000000000f1
:0a38d70000000000000000000000e7
:2038e1000000000000000000000000000000000000000000000000000000000000000000c7
:09390100000000000000000000bd
:20390a00080000000000000000000000000000000000000000000000000000000000000095
:0a392a000000000000000000000093
:20393400000000000000000000000000000000000000000000000000000000000000000073
:093954000000000000000000006a
:20395d0000000000000000000000000000000000000000000000000000000000000000004a
:0a397d000000000000000000000040
:20398700000000000000000000000000000000000000000000000000000000000000000020
:0939a70000000000000000000017
:2039b0000000280000000000000000000000000000000000000000000000000000000000cf
:0a39d00000000000000000000000ed
:2039da000000000000000000000000000000000000000000000000000000000000000000cd
:0939fa00000000000000000000c4
:203a030008000000000000000000000000000000000000000000000000000000000000009b
:0a3a23000000000000000000000099
:203a2d00000000000000000000000000000000000000000000000000000000000000000079
:093a4d0000000000000000000070
:203a5600000000000000000000000000000000000000000000000000000000000000000050
:0a3a76000000000000000000000046
:203a8000000100000000000500000000000000000000000000000000000000000000000020
:093aa0000000000000000000001d
:203aa9000000000000000000000000000000000000000000000000000000000000000000fd
:0a3ac90000000000000000000000f3
:203ad300400000000000000000000000000000000000000000000000000000000000000093
:093af300000000000000000000ca
:203afc000000000000000000000000000000000000000000000000000000000000000000aa
:0a3b1c00000000000000000000009f
:203b260000000000000000000000000000000000000000000000000000000000000000007f
:093b460000000000000000000076
:203b4f00000000000000000000000000000000000000000000000000000000000000000056
:0a3b6f00000000000000000000004c
:203b790000000000000000000000000000000000000000000000000000000000000000002c
:093b990000000000000000000023
:203ba2000800000000000000000000000000000000000000000000000000000000000000fb
:0a3bc20000000000000000000000f9
:203bcc000000000000000000000000000000000000000000000000000000000000000000d9
:093bec00000000000000000000d0
:203bf5000000000000000000000000000000000000000000000000000000000000000000b0
:0a3c1500000700000000000000009e
:203c1f00000000000000000000000000000000000000000000000000000000000000000085
:093c3f000000000000000000007c
:203c4800000000000000000000000000000000000000000008000000000000000000000054
:0a3c6800000004000000000000103e
:203c7200000000000000000000000000000000000000000000000000000000000000000032
:093c920000000000000000000029
:203c9b00000000000000000000000000000000000000000000000000000000000000000009
:0a3cbb0000000000000000000000ff
:203cc5000000000000000000000000000000000000000000000000000000000000000000df
:093ce500000000000000000000d6
:203cee000000000000000000000000000000000000000000000000000000000000000000b6
:0a3d0e0000000000000000000000ab
:203d1800000200000000000000000000000000000000000000000000000000000000000089
:093d380000000000000000000082
:203d4100000000000000000000000000000000000000000000000000000000000000000062
:0a3d61000000000000000000000058
:203d6b00000000000000000000000000000000000000000000000000000000000000000038
:093d8b000000000000000000002f
:203d94000000200000000000000000000000000000000000000000000000000000000000ef
:0a3db4000000000000000000000005
:203dbe000000000000000000000000000000000000000000000000000000000000000000e5
:093dde00000000000000000000dc
:203de7000000000000000000000000000000000000000000000000000000000000000000bc
:0a3e070000000000000000000000b1
:203e1100000000000000000000000000000000000000000000000000000000000000000091
:093e310000000000000000000088
:203e3a00000000000000000000000000000000000000000000000000000000000000000068
:0a3e5a00000000000000000000005e
:203e640000000000000000000000000000000000000000000000000000000000000000003e
:093e840000000000000000000035
:203e8d00000000000000000000000000000000000000000000000000000000000000000015
:0a3ead00000000000000000000000b
:203eb7000000400000000000000000000000000000000000000000000000000000000000ab
:093ed700000000000000000000e2
:203ee0000000200000000000000000000000000000000000000000000000000000000000a2
:0a3f000000000000000000000000b7
:203f0a0000780000000000000000000000001400000000000000000000000000000000000b
:093f2a000000000000000000008e
:203f3300080410000000000000000000000000000000000000000000000000000000000052
:0a3f53000000000000000000000064
:203f5d00000000000000000000000000000000000000000000000000000000000000000044
:093f7d000000000000000000003b
:203f860000000000000000000000000000000000000000000000000000000000000000001b
:0a3fa6000000000000000000000011
:203fb0000003000000000000000000000000000000000000000000000000000000000000ee
:093fd000000000000000000000e8
:203fd9000000000000000000000000000000000000000000000000000000000000000000c8
:0a3ff90000000000000000000000be
:2040030000000000000000000000000000000000000000000000000000000000000000009d
:0940230000000000000000000094
:20402c00000000000000000000000000000000000000000000000000000000040000000070
:0a404c00000000000000000000006a
:2040560040000000000000000000000000000000000000000000000000000000000000000a
:0940760000000000000000000041
:20407f0000c000000000000000000000000000000000000000000000000000000000000061
:0a409f0000000000000000001c00fb
:2040a9000000000000000000000000000000000000000000000000000000000000000000f7
:0940c900000000000000000000ee
:2040d2000800000000000000000000000000000000000000000000000000000000000000c6
:0a40f20000000000000000000000c4
:2040fc00400000000000000000000000000000000000000000000000000000000000000064
:09411c000000000000000000009a
:2041250000000000000000000000000000000000000000000000000000000000000000007a
:0a4145000000000000000000000070
:20414f00400000000000000000000000000000000000000000000000000000000000000010
:09416f00000000000000580000ef
:204178000000200000000000000000000000000000000000080000000000000000000000ff
:0a419800000000000000000000001d
:2041a2000000000000000000000000000000000000000000000000000000000000000000fd
:0941c2000000000040ca81b000b9
:2041cb000800000000000000000000000000000000000000000000000000000000000000cc
:0a41eb00000000000034e50a0000a7
:2041f50048040000000000000000000000000000000000000000000000000000000000005e
:09421500000000000000d1a0002f
:20421e000083c000000000000000000000000000000000000000000000000000000000003d
:0a423e0000000000000005800000f1
:20424800000300000000000000000000000000000000000000000000000000000000000053
:09426800000000000000801000bd
:2042710000000000000000000000000000000000000000000000000000000000000000002d
:0a429100000000000000050a000014
:20429b00000000000000000000000000000000000000000000000000000000000000000003
:0942bb0000000002966901800078
:2042c4000000200000000000000000000000000000000000000000000000000000000000ba
:0a42e400000000001285901b00008e
:2042ee004c0000000000000000000000000000000000000000000000000000000000000064
:09430e000000000003dc000000c7
:20431700008000000000000000000000000000000000000000000000000000000000000006
:0a4337000000000000b6900b00002b
:20434100000400000000000000000000000000000000000000000000000000000000000058
:0943610000000300016c50100083
:20436a000803c0000000000000000000000000000000000000000000000000040000000064
:0a438a00000000001000b0890000e0
:204394004000000000000000000000000000000000000000000000000000000000000000c9
:0943b40000000000000000000000
:2043bd000000000000000000000000000000000000000000000000000000000000000000e0
:0a43dd0000000000000000000000d6
:2043e700400000000000000000000000000000000000000000000000000000000000000076
:0944070000000000034800a000c1
:20441000000300000000000000000000000000000000000000000000000000000000000089
:0a443000000000002036a00000008c
:20443a00000000000000000000000000000000000000000000000000000000000000000062
:09445a000000410a95ccd80001d4
:20446300080000000000000000000000000000000000000000000000000000000000000031
:0a448300000001021641c50a000402
:20448d004000000000000000000000000000000000000000000000000000000000000000cf
:0944ad0000000000067ad9b000fd
:2044b600008000000000000000000000000000000000000000000000000000000000000066
:0a44d600000000000017c50a0000f6
:2044e0000003000000000000000000000000000000000000000000000000000000000000b9
:094500000000000014da99b0007b
:20450900000000000000000000000000000000000000000000000000000000000000000092
:0a452900000000000140050a000038
:20453300000000000000000000000000000000000000000000000000000000020a0f7000dd
:0945530000000000414b01800052
:20455c00000020000000000000000000000000000000000000000000000000002000f0000f
:0a457c00000000000015f10b000024
:20458600000000000000000000000000000000000000000000000000000000000000000015
:0945a60000000101686b1800001f
:2045af000000000000000000000000000000000000000000000000000000000000000000ec
:0a45cf00000000002001a0800000a1
:2045d9000000000000000000000000000000000000000000000000000000000000000000c2
:0945f90004000503fdcc81c000a3
:20460200000000000000000000000000000000000000000000000000000000000000000098
:0a46220003c000000302d1100000e5
:20462c0000000000000000000000000000000000000000000000000000000000000000006e
:09464c000000000003f9198000d0
:20465500000000000000000000000000000000000000000000000000000000000000000045
:0a467500000000002025d090000096
:02467f00000039
:02468100110323
:02468300010133
:20468500000000000000000000000000000000000000000000000000000000000000000015
:0946a5000000000000000000000c
:2046ae000000000000000000000000000000000000000000000000000000000000000000ec
:0a46ce0000000000000000000000e2
:2046d8000000000000000000000000000000000000000000000000000000000000000000c2
:0946f800000000000000000000b9
:20470100000000000000000000000000000000000000000000000000000000000000000098
:0a472100000000000000000000008e
:20472b0000000000000000000000000000000000000000000000000000000000000000006e
:09474b0000000000000000000065
:20475400000000000000000000000000000000000000000000000000000000000000000045
:0a477400000000000000000000003b
:20477e0000000000000800000000000020000000000800000000000020000000000000804b
:09479e0000000000000200000010
:2047a7000000000000000000000000000000000000000000000000000000000000000000f2
:0a47c70000000000000000000000e8
:2047d1000000000000080000000000002000000000080000000000002000000000000080f8
:0947f100000000000002000000bd
:2047fa0000000000000000000000000000000000000000000000000000000000000000009f
:0a481a000000000000000000000094
:20482400000000000000000000000000000000000000000000000000000000000000000074
:094844000000000000000000006b
:20484d0000000000000000000000000000000000000000000000000000000000000000004b
:0a486d000000000000000000000041
:20487700000000000000000000000000000000000000000000000000000000000000000021
:0948970000000000000000000018
:2048a0000000000000000000000000000000000000000000000000000000000000000000f8
:0a48c00000000000000000000000ee
:2048ca000000000000000000000000000000000000000000000000000000000000000000ce
:0948ea00000000000000000000c5
:2048f3000000000000000000000000000000000000000000000000000000000000000000a5
:0a491300000000000000000000009a
:20491d0000000000000000000000000000000000000000000000000000000000000000007a
:09493d0000000000000000000071
:20494600000000000000000000000000000000000000000000000000000000000000000051
:0a4966000000000000000000000047
:20497000000000000000000000000000000000000000000000000000000000000000000027
:094990000000000000000000001e
:204999000000000000000000000000000000000000000000000000000000000000000000fe
:0a49b90000000000000000000000f4
:2049c3000000000000000000000000000000000000000000000000000000000000000000d4
:0949e300000000000000000000cb
:2049ec000000000000000000000000000000000000000000000000000000000000000000ab
:0a4a0c0000000000000000000000a0
:204a160000020000000000000000000000000000000000000000000000000000000000007e
:094a360000000000000000000077
:204a3f00000000000000000000000000000000000000000000000000000000000000000057
:0a4a5f00000000000000000000004d
:204a690000000000000000000000000000000000000000000000000000000000000000002d
:094a890000000000000000000024
:204a92000000200000000000000000000000000000000000000000000000000000000000e4
:0a4ab20000000000000000000000fa
:204abc000000000000000000000000000000000000000000000000000000000000000000da
:094adc00000000000000000000d1
:204ae5000000000000000000000000000000000000000000000000000000000000000000b1
:0a4b050000000000000000000000a6
:204b0f00000000000000000000000000000000000000000000000000000000000000000086
:094b2f000000000000000000007d
:204b380000000000000000000000000000000000000000000000000000000000000000005d
:0a4b58000000000000000000000053
:204b6200000000000000000000000000000000000000000000000000000000000000000033
:094b82000000000000000000002a
:204b8b0000000000000000000000000000000000000000000000000000000000000000000a
:0a4bab000000000000000000000000
:204bb5000000000000000000000000000000000000000000000000000000000000000000e0
:094bd500000000000000000000d7
:204bde000000000000000000000000000000000000000000000000000000000000000000b7
:0a4bfe0000000000000000000000ad
:204c080000000000000000000000000000000000000000000000000000000000000000008c
:094c280000000000000000000083
:204c3100000000000000000000000000000000000000000000000000000000000000000063
:0a4c51000000000000000000000059
:204c5b00000000000000000000000000000000000000000000000000000000000000000039
:094c7b0000000000000000000030
:204c8400000000000000000000000000000000000000000000000000000000000000000010
:0a4ca4000000000000000000000006
:204cae000002000000000000000000000000000000000000000000000000000000000000e4
:094cce00000000000000000000dd
:204cd7000000000000000000000000000000000000000000000000000000000000000000bd
:0a4cf70000000000000000000000b3
:204d0100000000000000000000000000000000000000000000000000000000000000000092
:094d210000000000000000000089
:204d2a00000020000000000000000000000000000000000000000000000000000000000049
:0a4d4a00000000000000000000005f
:204d540000000000000000000000000000000000000000000000000000000000000000003f
:094d740000000000000000000036
:204d7d00000000000000000000000000000000000000000000000000000000000000000016
:0a4d9d00000000000000000000000c
:204da7000000000000000000000000000000000000000000000000000000000000000000ec
:094dc700000000000000000000e3
:204dd0000000000000000000000000000000000000000000000000000000000000000000c3
:0a4df00000000000000000000000b9
:204dfa00000000000000000000000000000000000000000080000000000000000000000019
:094e1a000000000000000000008f
:204e230000000000000000000000000000000000000000000000000000000000000000006f
:0a4e43000000000000000000000065
:204e4d00000000000000000000000000000000000000000000000000000000000000000045
:094e6d000000000000000000003c
:204e760000000000000000000000000000000000000000000000000000000000000000001c
:0a4e96000000000000000000000012
:204ea0000000000000000000000000000000000000000000000000000000000000000000f2
:094ec000000000000000000000e9
:204ec9000000000000000000000000000000000000000000000000000000000000000000c9
:0a4ee90000000000000000000000bf
:204ef30000000000000000000000000000000000000000000000000000000000000000009f
:094f130000000000000000000095
:204f1c00000000000000000000000000000000000000000000000000000000000000000075
:0a4f3c00000000000000000000006b
:204f4600000200000000000000000000000000000000000000000000000000000000000049
:094f660000000000000000000042
:204f6f00000000000000000000000000000000000000000000000000000000000000000022
:0a4f8f000000000000000000000018
:204f99000000000000000000000000000000000000000000000000000000000000000000f8
:094fb900000000000000000000ef
:204fc2000000200000000000000000000000000000000000000000000000000000000000af
:0a4fe20000000000000000000000c5
:204fec000000000000000000000000000000000000000000000000000000000000000000a5
:09500c000000000000000000009b
:2050150000000000000000000000000000000000000000000000000000000000000000007b
:0a5035000000000000000000000071
:20503f00000000000000000000000000000000000000000000000000000000000000000051
:09505f0000000000000000000048
:20506800000000000000000000000000000000000000000000000000000000000000000028
:0a508800000000000000000000001e
:205092000000000000000000000000000000000000000000000000000000000000000000fe
:0950b200000000000000000000f5
:2050bb000000000000000000000000000000000000000000000000000000000000000000d5
:0a50db0000000000000000000000cb
:2050e5000000000000000000000000000000000000000000000000000000000000000000ab
:09510500000000000000000000a1
:20510e00000000000000000000000000000000000000000000000000000000000000000081
:0a512e000000000000000000000077
:20513800000000000000000000000000000000000000000000000000000000000000000057
:095158000000000000000000004e
:2051610000000000000000000000000000000000000000000000000000000000000000002e
:0a5181000000000000000000000024
:20518b00000000000000000000000000000000000000000000000000000000000000000004
:0951ab00000000000000000000fb
:2051b4000000000000000000000000000000000000000000000000000000000000000000db
:0a51d40000000000000000000000d1
:2051de000002000000000000000000000000000000000000000000000000000000000000af
:0951fe00000000000000000000a8
:20520700000000000000000000000000000000000000000000000000000000000000000087
:0a522700000000000000000000007d
:2052310000000000000000000000000000000000000000000000000000000000000000005d
:0952510000000000000000000054
:20525a00000020000000000000000000000000000000000000000000000000000000000014
:0a527a00000000000000000000002a
:2052840000000000000000000000000000000000000000000000000000000000000000000a
:0952a40000000000000000000001
:2052ad000000000000000000000000000000000000000000000000000000000000000000e1
:0a52cd0000000000000000000000d7
:2052d7000000000000000000000000000000000000000000000000000000000000000000b7
:0952f700000000000000000000ae
:2053000000000000000000000000000000000000000000000000000000000000000000008d
:0a5320000000000000000000000083
:20532a000000000000000000000000000000000000000000800000000000000000000000e3
:09534a000000000000000000005a
:2053530000000000000000000000000000000000000000000000000000000000000000003a
:0a5373000000000000000000000030
:20537d00000000000000000000000000000000000000000000000000000000000000000010
:09539d0000000000000000000007
:2053a6000000000000000000000000000000000000000000000000000000000000000000e7
:0a53c60000000000000000000000dd
:2053d0000000000000000000000000000000000000000000000000000000000000000000bd
:0953f000000000000000000000b4
:2053f900000000000000000000000000000000000000000000000000000000000000000094
:0a5419000000000000000000000089
:20542300000000000000000000000000000000000000000000000000000000000000000069
:0954430000000000000000000060
:20544c00000000000000000000000000000000000000000000000000000000000000000040
:0a546c000000000000000000000036
:20547600000000000000000000000000000000000000000000000000000000000000000016
:095496000000000000000001000c
:20549f000000000000000000000000000000000000000000000000000000000000000000ed
:0a54bf0000000000000000000000e3
:2054c9000000000000000000000000000000000000000000000000000000000000000000c3
:0954e900000000000000000000ba
:2054f20000000000000000000000000000000000000000000000000000000000000000009a
:0a551200000200000000000000008d
:20551c0000000000000000000000000000000000000000000000000000000010000000005f
:09553c0000004000000000000026
:20554500000000000000000000000000000000000000000000000000000000000000000046
:0a556500000000000000000000003c
:20556f0000000000000000000000000000000000000000000000000000000000000000001c
:09558f0000000000000000000013
:205598000000000000000000000000000000000000000000000000000000000000000000f3
:0a55b80000000000000000000000e9
:2055c2000000000000000000000000000000000000000000000000000000001000000000b9
:0955e2000000400000000002007e
:2055eb000000000000000000000000000000000000000000000000000000000000000000a0
:0a560b000000000000000000000095
:20561500000000000000000000000000000000000000000000000000000000000000000075
:095635000000100000000000005c
:20563e0000000000000000000000000000000000000000000000000000000000000000004c
:0a565e000000020000000000000040
:20566800000000000000000000000000000000000000000000000000000000000000000022
:0956880000000000000000000019
:205691000000000000000000000000000000000000000000000000000000000000000000f9
:0a56b10000000000000000000000ef
:2056bb000000000000000000000000000000000000000000000000000000000000000000cf
:0956db00000000000000000000c6
:2056e4000000000000000000000000000000000000000000000000000000000000000000a6
:0a570400000000000000000000009b
:20570e00000200000000000000000000000000000000000000000000000000000000000079
:09572e0000000000000000000072
:20573700000000000000000000000000000000000000000000000000000000000000000052
:0a5757000000000000000000000048
:20576100000000000000000000000000000000000000000000000000000000000000000028
:095781000000000000000000001f
:20578a000000200000000000000000000000000000000000000000000000000000000000df
:0a57aa0000000000000000000000f5
:2057b4000000000000000000000000000000000000000000000000000000000000000000d5
:0957d400200000000000000000ac
:2057dd000000000000000000000000000000000000000000000000000000000000000000ac
:0a57fd000040000000000000000062
:20580700000000000000000000000000000000000000000000000000000000000000000081
:0958270000001000000000000068
:20583000000000000000000000000000000000000000000000000000000000000000000058
:0a585000000004000000000000004a
:20585a000000000000000000000000000000000000000000800000000000000020aa0000e4
:09587a0000000000000000000025
:2058830000000000000000000000000000000000000000000000000000000000002aa12812
:0a58a30000000000000000000000fb
:2058ad000000000000000000000000000000000000000000000000000000000400f00400e3
:0958cd002000100000fe50000054
:2058d600000000000000000000000000000000000000000000000000000000008030f17899
:0a58f60060400200007fcd8000003a
:205900000000000000000000000000000000000000000000000000000000000000f0040093
:0959200020000000000050a0006e
:20592900000000000000000000000000000000000000000000000000000180000030f16854
:0a5949000640000000000800000006
:205953000000000000000000000000000000000000000000000000000000000000f0000044
:09597300000000000000500000db
:20597c00000000000000000000000000000000000000000000000000000000000030f16882
:0a599c000000000000000d9a00005a
:2059a6000002000000000000000000000000000000000000000000000000000000f00000ef
:0959c60000000000000000a00038
:2059cf00000000000000000000000000000000000000000000000000000000000030f1781f
:0a59ef00000000000000001b000093
:2059f9000000000000000000000000000000000000000000000000000000000010f0040486
:095a19000000000103ed0900008a
:205a2200000020000000000000000000000000000000000000000000000000000030f12af9
:0a5a4200060000000037b1980000d4
:205a4c000000000000000000000000000000000000000000000000000008000010f004042a
:095a6c0001000001001b90000084
:205a7500000000000000000000000000000000000000000000000000000010000030f12ab6
:0a5a950060000011000ce980000021
:205a9f00000000000000000000000000000000000000000000022580a000000410f000009c
:095abf0000001000035800000073
:205ac8000000000000000000000000000000000000000000000009a5c00000010030f138f6
:0a5ae80000000400040c8000000020
:205af200000000000000000000000000000000000000000000003c000000000020f0000048
:095b120000000000140071000005
:205b1b00000000000000000000000000000000000000000000001bc1400000000030f138f5
:0a5b3b0000000000015dc818000022
:205b45000000000000000000000000000000000000000000000000000000000000f004004c
:095b650020001000025c00a00009
:205b6e00000000000000000000000000000000000000000000000000000000000030f1787e
:0a5b8e0060400200042de5800000d5
:205b98000000000000000000000000000000000000000000000000000000000000f00400f9
:095bb800000000000000708000f4
:205bc100000000000000000000000000000000000000000000000000000000000030f1683b
:0a5be100060000000000058000002f
:205beb000000000000000000000000000000000000000000000000000000000000f00000aa
:095c0b00000000003cf850a0006c
:205c1400000000000000000000000000000000000000000000000000000000000030f168e7
:0a5c34000000000001eef99b0000e3
:205c3e000002000000000000000000000000000000000000000000000000000000f0000054
:095c5e0028000800000c01a00060
:205c6700000000000000000000000000000000000000000000000000000000000070f17844
:0a5c8700028000100094f5080000f0
:205c91000000000000000000000000000000000000000000000000000000000000f00404fb
:095cb1000000000001fd080000e4
:205cba00000020000000000000000000000000000000000000000000000000000030f12a5f
:0a5cda0006000000013dc51800009f
:205ce4002040000000000000000000000000000000000000000000000000000000f0040448
:095d040000000000000000b000e6
:205d0d00020300000000000000000000000000000000000000000000000000000030f12a26
:0a5d2d00600000000000000000000c
:205d37000000000000000000000000000000000000000000000000000000000000f000005c
:095d570000001000303f080000bc
:205d6000000000000000000000000000000000000000000010000000000000000030f138ba
:0a5d8000000004123fd6811e00004f
:205d8a00040000000000000000000000000000000000000080000000000000000000300045
:095daa0000000000606a70900026
:205db300000000000000000000000000000000000000000000000000000000000010003090
:0a5dd30000000000068ff000000041
:025ddd000000c4
:035ddf0062003f20
:035de200720080cc
:025de5001100ab
:035de70082000037
:025dea000103b3
:085dec000000000000000000af
:085df4000000000000000000a7
:085dfc0000000000000000009f
:085e0400000000000000000096
:0261ec000000b1
:0361ee00820080ac
:0261f1000103a8
:0861f3000000000000000000a4
:0861fb0000000000000000009c
:08620300000000000000000093
:08620b0000000000000000008b
:0265f3000000a6
:0265f500110192
:0365f7008200001f
:0265fa0001039b
:0865fc00000000000000000097
:0866040000000000000000008e
:08660c00000000000000000086
:0866140000000000000000007e
:0269fc00000099
:0369fe0082008094
:026a010001038f
:086a030000000000000000008b
:086a0b00000000000000000083
:086a130000000000000000007b
:086a1b00000000000000000073
:026e030000008d
:026e0500110278
:036e070082000006
:026e0a00010382
:086e0c0000000000000000007e
:086e1400000000000000000076
:086e1c0000000000000000006e
:086e2400000000000000000066
:02720c00000080
:03720e008200807b
:02721100010377
:08721300000000000000000073
:08721b0000000000000000006b
:08722300000000000000000063
:08722b0000000000000000005b
:02761300000075
:0276150011035f
:03761700820000ee
:02761a0001036a
:08761c00000000000000000066
:0876240000000000000000005e
:08762c00000000000000000056
:0876340000000000000000004e
:027a1c00000068
:037a1e0082008063
:027a210001035f
:087a230000000000000000005b
:087a2b00000000000000000053
:087a330000000000000000004b
:087a3b00000000000000000043
:027e230000005d
:017e2500223a
:027e2600400f0b
:027e2800010651
:00000001FF
